{
	"data": {
		"bytecode": {
			"linkReferences": {},
			"object": "6080604052348015600e575f80fd5b506108798061001c5f395ff3fe608060405234801561000f575f80fd5b5060043610610060575f3560e01c80630317d5f3146100645780630add6ef21461006e5780633f3108f71461008c5780634d965d3214610096578063a16d3598146100c6578063e9b61909146100e4575b5f80fd5b61006c610102565b005b6100766101bc565b60405161008391906103c6565b60405180910390f35b610094610247565b005b6100b060048036038101906100ab919061041d565b6102c9565b6040516100bd9190610482565b60405180910390f35b6100ce610330565b6040516100db91906104aa565b60405180910390f35b6100ec610344565b6040516100f991906104fd565b60405180910390f35b5f8080548061011090610543565b80601f810361012d57835f5260205f2060ff1984168155603f9350505b5060028201835560018101925050506001900381546001161561015d57905f5260205f2090602091828204019190065b7f640000000000000000000000000000000000000000000000000000000000000090919091601f036101000a81548160ff021916907f010000000000000000000000000000000000000000000000000000000000000084040217905550565b5f80546101c890610543565b80601f01602080910402602001604051908101604052809291908181526020018280546101f490610543565b801561023f5780601f106102165761010080835404028352916020019161023f565b820191905f5260205f20905b81548152906001019060200180831161022257829003601f168201915b505050505081565b6040518060400160405280600281526020017f61620000000000000000000000000000000000000000000000000000000000008152505f908161028a9190610747565b507f616263000000000000000000000000000000000000000000000000000000000060015f6101000a81548162ffffff021916908360e81c0217905550565b5f808281546102d790610543565b81106102e6576102e5610816565b5b81546001161561030357905f5260205f2090602091828204019190065b9054901a7f0100000000000000000000000000000000000000000000000000000000000000029050919050565b5f80805461033d90610543565b9050905090565b60015f9054906101000a900460e81b81565b5f81519050919050565b5f82825260208201905092915050565b8281835e5f83830152505050565b5f601f19601f8301169050919050565b5f61039882610356565b6103a28185610360565b93506103b2818560208601610370565b6103bb8161037e565b840191505092915050565b5f6020820190508181035f8301526103de818461038e565b905092915050565b5f80fd5b5f819050919050565b6103fc816103ea565b8114610406575f80fd5b50565b5f81359050610417816103f3565b92915050565b5f60208284031215610432576104316103e6565b5b5f61043f84828501610409565b91505092915050565b5f7fff0000000000000000000000000000000000000000000000000000000000000082169050919050565b61047c81610448565b82525050565b5f6020820190506104955f830184610473565b92915050565b6104a4816103ea565b82525050565b5f6020820190506104bd5f83018461049b565b92915050565b5f7fffffff000000000000000000000000000000000000000000000000000000000082169050919050565b6104f7816104c3565b82525050565b5f6020820190506105105f8301846104ee565b92915050565b7f4e487b71000000000000000000000000000000000000000000000000000000005f52602260045260245ffd5b5f600282049050600182168061055a57607f821691505b60208210810361056d5761056c610516565b5b50919050565b5f81519050919050565b7f4e487b71000000000000000000000000000000000000000000000000000000005f52604160045260245ffd5b5f819050815f5260205f209050919050565b5f6020601f8301049050919050565b5f82821b905092915050565b5f600883026106067fffffffffffffffffffffffffffffffffffffffffffffffffffffffffffffffff826105cb565b61061086836105cb565b95508019841693508086168417925050509392505050565b5f819050919050565b5f61064b610646610641846103ea565b610628565b6103ea565b9050919050565b5f819050919050565b61066483610631565b61067861067082610652565b8484546105d7565b825550505050565b5f90565b61068c610680565b61069781848461065b565b505050565b5b818110156106ba576106af5f82610684565b60018101905061069d565b5050565b601f8211156106ff576106d0816105aa565b6106d9846105bc565b810160208510156106e8578190505b6106fc6106f4856105bc565b83018261069c565b50505b505050565b5f82821c905092915050565b5f61071f5f1984600802610704565b1980831691505092915050565b5f6107378383610710565b9150826002028217905092915050565b61075082610573565b67ffffffffffffffff8111156107695761076861057d565b5b6107738254610543565b61077e8282856106be565b5f60209050601f8311600181146107af575f841561079d578287015190505b6107a7858261072c565b86555061080e565b601f1984166107bd866105aa565b5f5b828110156107e4578489015182556001820191506020850194506020810190506107bf565b8683101561080157848901516107fd601f891682610710565b8355505b6001600288020188555050505b505050505050565b7f4e487b71000000000000000000000000000000000000000000000000000000005f52603260045260245ffdfea26469706673582212202f2453011ea1b9a1f982fa26add35440fe6d1d8f9933859dca172c6cf131dd6d64736f6c634300081a0033",
			"opcodes": "PUSH1 0x80 PUSH1 0x40 MSTORE CALLVALUE DUP1 ISZERO PUSH1 0xE JUMPI PUSH0 DUP1 REVERT JUMPDEST POP PUSH2 0x879 DUP1 PUSH2 0x1C PUSH0 CODECOPY PUSH0 RETURN INVALID PUSH1 0x80 PUSH1 0x40 MSTORE CALLVALUE DUP1 ISZERO PUSH2 0xF JUMPI PUSH0 DUP1 REVERT JUMPDEST POP PUSH1 0x4 CALLDATASIZE LT PUSH2 0x60 JUMPI PUSH0 CALLDATALOAD PUSH1 0xE0 SHR DUP1 PUSH4 0x317D5F3 EQ PUSH2 0x64 JUMPI DUP1 PUSH4 0xADD6EF2 EQ PUSH2 0x6E JUMPI DUP1 PUSH4 0x3F3108F7 EQ PUSH2 0x8C JUMPI DUP1 PUSH4 0x4D965D32 EQ PUSH2 0x96 JUMPI DUP1 PUSH4 0xA16D3598 EQ PUSH2 0xC6 JUMPI DUP1 PUSH4 0xE9B61909 EQ PUSH2 0xE4 JUMPI JUMPDEST PUSH0 DUP1 REVERT JUMPDEST PUSH2 0x6C PUSH2 0x102 JUMP JUMPDEST STOP JUMPDEST PUSH2 0x76 PUSH2 0x1BC JUMP JUMPDEST PUSH1 0x40 MLOAD PUSH2 0x83 SWAP2 SWAP1 PUSH2 0x3C6 JUMP JUMPDEST PUSH1 0x40 MLOAD DUP1 SWAP2 SUB SWAP1 RETURN JUMPDEST PUSH2 0x94 PUSH2 0x247 JUMP JUMPDEST STOP JUMPDEST PUSH2 0xB0 PUSH1 0x4 DUP1 CALLDATASIZE SUB DUP2 ADD SWAP1 PUSH2 0xAB SWAP2 SWAP1 PUSH2 0x41D JUMP JUMPDEST PUSH2 0x2C9 JUMP JUMPDEST PUSH1 0x40 MLOAD PUSH2 0xBD SWAP2 SWAP1 PUSH2 0x482 JUMP JUMPDEST PUSH1 0x40 MLOAD DUP1 SWAP2 SUB SWAP1 RETURN JUMPDEST PUSH2 0xCE PUSH2 0x330 JUMP JUMPDEST PUSH1 0x40 MLOAD PUSH2 0xDB SWAP2 SWAP1 PUSH2 0x4AA JUMP JUMPDEST PUSH1 0x40 MLOAD DUP1 SWAP2 SUB SWAP1 RETURN JUMPDEST PUSH2 0xEC PUSH2 0x344 JUMP JUMPDEST PUSH1 0x40 MLOAD PUSH2 0xF9 SWAP2 SWAP1 PUSH2 0x4FD JUMP JUMPDEST PUSH1 0x40 MLOAD DUP1 SWAP2 SUB SWAP1 RETURN JUMPDEST PUSH0 DUP1 DUP1 SLOAD DUP1 PUSH2 0x110 SWAP1 PUSH2 0x543 JUMP JUMPDEST DUP1 PUSH1 0x1F DUP2 SUB PUSH2 0x12D JUMPI DUP4 PUSH0 MSTORE PUSH1 0x20 PUSH0 KECCAK256 PUSH1 0xFF NOT DUP5 AND DUP2 SSTORE PUSH1 0x3F SWAP4 POP POP JUMPDEST POP PUSH1 0x2 DUP3 ADD DUP4 SSTORE PUSH1 0x1 DUP2 ADD SWAP3 POP POP POP PUSH1 0x1 SWAP1 SUB DUP2 SLOAD PUSH1 0x1 AND ISZERO PUSH2 0x15D JUMPI SWAP1 PUSH0 MSTORE PUSH1 0x20 PUSH0 KECCAK256 SWAP1 PUSH1 0x20 SWAP2 DUP3 DUP3 DIV ADD SWAP2 SWAP1 MOD JUMPDEST PUSH32 0x6400000000000000000000000000000000000000000000000000000000000000 SWAP1 SWAP2 SWAP1 SWAP2 PUSH1 0x1F SUB PUSH2 0x100 EXP DUP2 SLOAD DUP2 PUSH1 0xFF MUL NOT AND SWAP1 PUSH32 0x100000000000000000000000000000000000000000000000000000000000000 DUP5 DIV MUL OR SWAP1 SSTORE POP JUMP JUMPDEST PUSH0 DUP1 SLOAD PUSH2 0x1C8 SWAP1 PUSH2 0x543 JUMP JUMPDEST DUP1 PUSH1 0x1F ADD PUSH1 0x20 DUP1 SWAP2 DIV MUL PUSH1 0x20 ADD PUSH1 0x40 MLOAD SWAP1 DUP2 ADD PUSH1 0x40 MSTORE DUP1 SWAP3 SWAP2 SWAP1 DUP2 DUP2 MSTORE PUSH1 0x20 ADD DUP3 DUP1 SLOAD PUSH2 0x1F4 SWAP1 PUSH2 0x543 JUMP JUMPDEST DUP1 ISZERO PUSH2 0x23F JUMPI DUP1 PUSH1 0x1F LT PUSH2 0x216 JUMPI PUSH2 0x100 DUP1 DUP4 SLOAD DIV MUL DUP4 MSTORE SWAP2 PUSH1 0x20 ADD SWAP2 PUSH2 0x23F JUMP JUMPDEST DUP3 ADD SWAP2 SWAP1 PUSH0 MSTORE PUSH1 0x20 PUSH0 KECCAK256 SWAP1 JUMPDEST DUP2 SLOAD DUP2 MSTORE SWAP1 PUSH1 0x1 ADD SWAP1 PUSH1 0x20 ADD DUP1 DUP4 GT PUSH2 0x222 JUMPI DUP3 SWAP1 SUB PUSH1 0x1F AND DUP3 ADD SWAP2 JUMPDEST POP POP POP POP POP DUP2 JUMP JUMPDEST PUSH1 0x40 MLOAD DUP1 PUSH1 0x40 ADD PUSH1 0x40 MSTORE DUP1 PUSH1 0x2 DUP2 MSTORE PUSH1 0x20 ADD PUSH32 0x6162000000000000000000000000000000000000000000000000000000000000 DUP2 MSTORE POP PUSH0 SWAP1 DUP2 PUSH2 0x28A SWAP2 SWAP1 PUSH2 0x747 JUMP JUMPDEST POP PUSH32 0x6162630000000000000000000000000000000000000000000000000000000000 PUSH1 0x1 PUSH0 PUSH2 0x100 EXP DUP2 SLOAD DUP2 PUSH3 0xFFFFFF MUL NOT AND SWAP1 DUP4 PUSH1 0xE8 SHR MUL OR SWAP1 SSTORE POP JUMP JUMPDEST PUSH0 DUP1 DUP3 DUP2 SLOAD PUSH2 0x2D7 SWAP1 PUSH2 0x543 JUMP JUMPDEST DUP2 LT PUSH2 0x2E6 JUMPI PUSH2 0x2E5 PUSH2 0x816 JUMP JUMPDEST JUMPDEST DUP2 SLOAD PUSH1 0x1 AND ISZERO PUSH2 0x303 JUMPI SWAP1 PUSH0 MSTORE PUSH1 0x20 PUSH0 KECCAK256 SWAP1 PUSH1 0x20 SWAP2 DUP3 DUP3 DIV ADD SWAP2 SWAP1 MOD JUMPDEST SWAP1 SLOAD SWAP1 BYTE PUSH32 0x100000000000000000000000000000000000000000000000000000000000000 MUL SWAP1 POP SWAP2 SWAP1 POP JUMP JUMPDEST PUSH0 DUP1 DUP1 SLOAD PUSH2 0x33D SWAP1 PUSH2 0x543 JUMP JUMPDEST SWAP1 POP SWAP1 POP SWAP1 JUMP JUMPDEST PUSH1 0x1 PUSH0 SWAP1 SLOAD SWAP1 PUSH2 0x100 EXP SWAP1 DIV PUSH1 0xE8 SHL DUP2 JUMP JUMPDEST PUSH0 DUP2 MLOAD SWAP1 POP SWAP2 SWAP1 POP JUMP JUMPDEST PUSH0 DUP3 DUP3 MSTORE PUSH1 0x20 DUP3 ADD SWAP1 POP SWAP3 SWAP2 POP POP JUMP JUMPDEST DUP3 DUP2 DUP4 MCOPY PUSH0 DUP4 DUP4 ADD MSTORE POP POP POP JUMP JUMPDEST PUSH0 PUSH1 0x1F NOT PUSH1 0x1F DUP4 ADD AND SWAP1 POP SWAP2 SWAP1 POP JUMP JUMPDEST PUSH0 PUSH2 0x398 DUP3 PUSH2 0x356 JUMP JUMPDEST PUSH2 0x3A2 DUP2 DUP6 PUSH2 0x360 JUMP JUMPDEST SWAP4 POP PUSH2 0x3B2 DUP2 DUP6 PUSH1 0x20 DUP7 ADD PUSH2 0x370 JUMP JUMPDEST PUSH2 0x3BB DUP2 PUSH2 0x37E JUMP JUMPDEST DUP5 ADD SWAP2 POP POP SWAP3 SWAP2 POP POP JUMP JUMPDEST PUSH0 PUSH1 0x20 DUP3 ADD SWAP1 POP DUP2 DUP2 SUB PUSH0 DUP4 ADD MSTORE PUSH2 0x3DE DUP2 DUP5 PUSH2 0x38E JUMP JUMPDEST SWAP1 POP SWAP3 SWAP2 POP POP JUMP JUMPDEST PUSH0 DUP1 REVERT JUMPDEST PUSH0 DUP2 SWAP1 POP SWAP2 SWAP1 POP JUMP JUMPDEST PUSH2 0x3FC DUP2 PUSH2 0x3EA JUMP JUMPDEST DUP2 EQ PUSH2 0x406 JUMPI PUSH0 DUP1 REVERT JUMPDEST POP JUMP JUMPDEST PUSH0 DUP2 CALLDATALOAD SWAP1 POP PUSH2 0x417 DUP2 PUSH2 0x3F3 JUMP JUMPDEST SWAP3 SWAP2 POP POP JUMP JUMPDEST PUSH0 PUSH1 0x20 DUP3 DUP5 SUB SLT ISZERO PUSH2 0x432 JUMPI PUSH2 0x431 PUSH2 0x3E6 JUMP JUMPDEST JUMPDEST PUSH0 PUSH2 0x43F DUP5 DUP3 DUP6 ADD PUSH2 0x409 JUMP JUMPDEST SWAP2 POP POP SWAP3 SWAP2 POP POP JUMP JUMPDEST PUSH0 PUSH32 0xFF00000000000000000000000000000000000000000000000000000000000000 DUP3 AND SWAP1 POP SWAP2 SWAP1 POP JUMP JUMPDEST PUSH2 0x47C DUP2 PUSH2 0x448 JUMP JUMPDEST DUP3 MSTORE POP POP JUMP JUMPDEST PUSH0 PUSH1 0x20 DUP3 ADD SWAP1 POP PUSH2 0x495 PUSH0 DUP4 ADD DUP5 PUSH2 0x473 JUMP JUMPDEST SWAP3 SWAP2 POP POP JUMP JUMPDEST PUSH2 0x4A4 DUP2 PUSH2 0x3EA JUMP JUMPDEST DUP3 MSTORE POP POP JUMP JUMPDEST PUSH0 PUSH1 0x20 DUP3 ADD SWAP1 POP PUSH2 0x4BD PUSH0 DUP4 ADD DUP5 PUSH2 0x49B JUMP JUMPDEST SWAP3 SWAP2 POP POP JUMP JUMPDEST PUSH0 PUSH32 0xFFFFFF0000000000000000000000000000000000000000000000000000000000 DUP3 AND SWAP1 POP SWAP2 SWAP1 POP JUMP JUMPDEST PUSH2 0x4F7 DUP2 PUSH2 0x4C3 JUMP JUMPDEST DUP3 MSTORE POP POP JUMP JUMPDEST PUSH0 PUSH1 0x20 DUP3 ADD SWAP1 POP PUSH2 0x510 PUSH0 DUP4 ADD DUP5 PUSH2 0x4EE JUMP JUMPDEST SWAP3 SWAP2 POP POP JUMP JUMPDEST PUSH32 0x4E487B7100000000000000000000000000000000000000000000000000000000 PUSH0 MSTORE PUSH1 0x22 PUSH1 0x4 MSTORE PUSH1 0x24 PUSH0 REVERT JUMPDEST PUSH0 PUSH1 0x2 DUP3 DIV SWAP1 POP PUSH1 0x1 DUP3 AND DUP1 PUSH2 0x55A JUMPI PUSH1 0x7F DUP3 AND SWAP2 POP JUMPDEST PUSH1 0x20 DUP3 LT DUP2 SUB PUSH2 0x56D JUMPI PUSH2 0x56C PUSH2 0x516 JUMP JUMPDEST JUMPDEST POP SWAP2 SWAP1 POP JUMP JUMPDEST PUSH0 DUP2 MLOAD SWAP1 POP SWAP2 SWAP1 POP JUMP JUMPDEST PUSH32 0x4E487B7100000000000000000000000000000000000000000000000000000000 PUSH0 MSTORE PUSH1 0x41 PUSH1 0x4 MSTORE PUSH1 0x24 PUSH0 REVERT JUMPDEST PUSH0 DUP2 SWAP1 POP DUP2 PUSH0 MSTORE PUSH1 0x20 PUSH0 KECCAK256 SWAP1 POP SWAP2 SWAP1 POP JUMP JUMPDEST PUSH0 PUSH1 0x20 PUSH1 0x1F DUP4 ADD DIV SWAP1 POP SWAP2 SWAP1 POP JUMP JUMPDEST PUSH0 DUP3 DUP3 SHL SWAP1 POP SWAP3 SWAP2 POP POP JUMP JUMPDEST PUSH0 PUSH1 0x8 DUP4 MUL PUSH2 0x606 PUSH32 0xFFFFFFFFFFFFFFFFFFFFFFFFFFFFFFFFFFFFFFFFFFFFFFFFFFFFFFFFFFFFFFFF DUP3 PUSH2 0x5CB JUMP JUMPDEST PUSH2 0x610 DUP7 DUP4 PUSH2 0x5CB JUMP JUMPDEST SWAP6 POP DUP1 NOT DUP5 AND SWAP4 POP DUP1 DUP7 AND DUP5 OR SWAP3 POP POP POP SWAP4 SWAP3 POP POP POP JUMP JUMPDEST PUSH0 DUP2 SWAP1 POP SWAP2 SWAP1 POP JUMP JUMPDEST PUSH0 PUSH2 0x64B PUSH2 0x646 PUSH2 0x641 DUP5 PUSH2 0x3EA JUMP JUMPDEST PUSH2 0x628 JUMP JUMPDEST PUSH2 0x3EA JUMP JUMPDEST SWAP1 POP SWAP2 SWAP1 POP JUMP JUMPDEST PUSH0 DUP2 SWAP1 POP SWAP2 SWAP1 POP JUMP JUMPDEST PUSH2 0x664 DUP4 PUSH2 0x631 JUMP JUMPDEST PUSH2 0x678 PUSH2 0x670 DUP3 PUSH2 0x652 JUMP JUMPDEST DUP5 DUP5 SLOAD PUSH2 0x5D7 JUMP JUMPDEST DUP3 SSTORE POP POP POP POP JUMP JUMPDEST PUSH0 SWAP1 JUMP JUMPDEST PUSH2 0x68C PUSH2 0x680 JUMP JUMPDEST PUSH2 0x697 DUP2 DUP5 DUP5 PUSH2 0x65B JUMP JUMPDEST POP POP POP JUMP JUMPDEST JUMPDEST DUP2 DUP2 LT ISZERO PUSH2 0x6BA JUMPI PUSH2 0x6AF PUSH0 DUP3 PUSH2 0x684 JUMP JUMPDEST PUSH1 0x1 DUP2 ADD SWAP1 POP PUSH2 0x69D JUMP JUMPDEST POP POP JUMP JUMPDEST PUSH1 0x1F DUP3 GT ISZERO PUSH2 0x6FF JUMPI PUSH2 0x6D0 DUP2 PUSH2 0x5AA JUMP JUMPDEST PUSH2 0x6D9 DUP5 PUSH2 0x5BC JUMP JUMPDEST DUP2 ADD PUSH1 0x20 DUP6 LT ISZERO PUSH2 0x6E8 JUMPI DUP2 SWAP1 POP JUMPDEST PUSH2 0x6FC PUSH2 0x6F4 DUP6 PUSH2 0x5BC JUMP JUMPDEST DUP4 ADD DUP3 PUSH2 0x69C JUMP JUMPDEST POP POP JUMPDEST POP POP POP JUMP JUMPDEST PUSH0 DUP3 DUP3 SHR SWAP1 POP SWAP3 SWAP2 POP POP JUMP JUMPDEST PUSH0 PUSH2 0x71F PUSH0 NOT DUP5 PUSH1 0x8 MUL PUSH2 0x704 JUMP JUMPDEST NOT DUP1 DUP4 AND SWAP2 POP POP SWAP3 SWAP2 POP POP JUMP JUMPDEST PUSH0 PUSH2 0x737 DUP4 DUP4 PUSH2 0x710 JUMP JUMPDEST SWAP2 POP DUP3 PUSH1 0x2 MUL DUP3 OR SWAP1 POP SWAP3 SWAP2 POP POP JUMP JUMPDEST PUSH2 0x750 DUP3 PUSH2 0x573 JUMP JUMPDEST PUSH8 0xFFFFFFFFFFFFFFFF DUP2 GT ISZERO PUSH2 0x769 JUMPI PUSH2 0x768 PUSH2 0x57D JUMP JUMPDEST JUMPDEST PUSH2 0x773 DUP3 SLOAD PUSH2 0x543 JUMP JUMPDEST PUSH2 0x77E DUP3 DUP3 DUP6 PUSH2 0x6BE JUMP JUMPDEST PUSH0 PUSH1 0x20 SWAP1 POP PUSH1 0x1F DUP4 GT PUSH1 0x1 DUP2 EQ PUSH2 0x7AF JUMPI PUSH0 DUP5 ISZERO PUSH2 0x79D JUMPI DUP3 DUP8 ADD MLOAD SWAP1 POP JUMPDEST PUSH2 0x7A7 DUP6 DUP3 PUSH2 0x72C JUMP JUMPDEST DUP7 SSTORE POP PUSH2 0x80E JUMP JUMPDEST PUSH1 0x1F NOT DUP5 AND PUSH2 0x7BD DUP7 PUSH2 0x5AA JUMP JUMPDEST PUSH0 JUMPDEST DUP3 DUP2 LT ISZERO PUSH2 0x7E4 JUMPI DUP5 DUP10 ADD MLOAD DUP3 SSTORE PUSH1 0x1 DUP3 ADD SWAP2 POP PUSH1 0x20 DUP6 ADD SWAP5 POP PUSH1 0x20 DUP2 ADD SWAP1 POP PUSH2 0x7BF JUMP JUMPDEST DUP7 DUP4 LT ISZERO PUSH2 0x801 JUMPI DUP5 DUP10 ADD MLOAD PUSH2 0x7FD PUSH1 0x1F DUP10 AND DUP3 PUSH2 0x710 JUMP JUMPDEST DUP4 SSTORE POP JUMPDEST PUSH1 0x1 PUSH1 0x2 DUP9 MUL ADD DUP9 SSTORE POP POP POP JUMPDEST POP POP POP POP POP POP JUMP JUMPDEST PUSH32 0x4E487B7100000000000000000000000000000000000000000000000000000000 PUSH0 MSTORE PUSH1 0x32 PUSH1 0x4 MSTORE PUSH1 0x24 PUSH0 REVERT INVALID LOG2 PUSH5 0x6970667358 0x22 SLT KECCAK256 0x2F 0x24 MSTORE8 ADD 0x1E LOG1 0xB9 LOG1 0xF9 DUP3 STATICCALL 0x26 0xAD 0xD3 SLOAD BLOCKHASH INVALID PUSH14 0x1D8F9933859DCA172C6CF131DD6D PUSH5 0x736F6C6343 STOP ADDMOD BYTE STOP CALLER "
		},
		"gasEstimates": {
			"creation": {
				"codeDepositCost": "433800",
				"executionCost": "466",
				"totalCost": "434266"
			},
			"external": {
				"b2()": "infinite",
				"b3()": "2554",
				"getelement(uint256)": "7219",
				"getlength()": "2630",
				"pushElement()": "74787",
				"setter()": "infinite"
			}
		},
		"methodIdentifiers": {
			"b2()": "0add6ef2",
			"b3()": "e9b61909",
			"getelement(uint256)": "4d965d32",
			"getlength()": "a16d3598",
			"pushElement()": "0317d5f3",
			"setter()": "3f3108f7"
		}
	},
	"abi": [
		{
			"inputs": [],
			"name": "b2",
			"outputs": [
				{
					"internalType": "bytes",
					"name": "",
					"type": "bytes"
				}
			],
			"stateMutability": "view",
			"type": "function"
		},
		{
			"inputs": [],
			"name": "b3",
			"outputs": [
				{
					"internalType": "bytes3",
					"name": "",
					"type": "bytes3"
				}
			],
			"stateMutability": "view",
			"type": "function"
		},
		{
			"inputs": [
				{
					"internalType": "uint256",
					"name": "i",
					"type": "uint256"
				}
			],
			"name": "getelement",
			"outputs": [
				{
					"internalType": "bytes1",
					"name": "",
					"type": "bytes1"
				}
			],
			"stateMutability": "view",
			"type": "function"
		},
		{
			"inputs": [],
			"name": "getlength",
			"outputs": [
				{
					"internalType": "uint256",
					"name": "",
					"type": "uint256"
				}
			],
			"stateMutability": "view",
			"type": "function"
		},
		{
			"inputs": [],
			"name": "pushElement",
			"outputs": [],
			"stateMutability": "nonpayable",
			"type": "function"
		},
		{
			"inputs": [],
			"name": "setter",
			"outputs": [],
			"stateMutability": "nonpayable",
			"type": "function"
		}
	]
}